:100000000C9461000C947E000C947E000C947E0095
:100010000C947E000C947E000C947E000C947E0068
:100020000C947E000C947E000C947E000C947E0058
:100030000C947E000C947E000C947E000C947E0048
:100040000C9452010C947E000C947E000C947E0063
:100050000C947E000C947E000C947E000C947E0028
:100060000C947E000C947E00000000002400270009
:100070002A000000000023002600290000000000E4
:10008000250028002B0004040404040404040202D4
:100090000202020203030303030301020408102007
:1000A0004080010204081020010204081020000012
:1000B0000008000201000003040700000000000027
:1000C000000011241FBECFEFD8E0DEBFCDBF11E08E
:1000D000A0E0B1E0E4EFF4E002C005900D92A230A0
:1000E000B107D9F721E0A2E0B1E001C01D92A03133
:1000F000B207E1F70E949C010C9478020C94000076
:10010000833081F028F4813099F08230A9F008958D
:100110008730A9F08830C9F08430B1F48091800034
:100120008F7D03C0809180008F7780938000089539
:1001300084B58F7784BD089584B58F7DFBCF809182
:10014000B0008F778093B00008958091B0008F7DCC
:10015000F9CF1F93CF93DF93E0EBF0E09491ECE9BC
:10016000F0E0D491E8E8F0E0C491CC23B9F0182F86
:10017000992319F0892F0E948000EC2FF0E0EE0FF8
:10018000FF1FE458FF4FA591B4918FB7F894EC91FD
:10019000111108C0D095DE23DC938FBFDF91CF9182
:1001A0001F910895DE2BF8CFCF93DF93E1EBF0E0C2
:1001B0008491EDE9F0E0D491E9E8F0E0C491CC233A
:1001C000A1F081110E948000EC2FF0E0EE0FFF1FE4
:1001D000EE58FF4FA591B491EC91ED2381E090E0B2
:1001E00009F480E0DF91CF91089580E090E0FACFAC
:1001F0003FB7F89480910C0190910D01A0910E01F0
:10020000B0910F0126B5A89B05C02F3F19F00196AC
:10021000A11DB11D3FBFBA2FA92F982F8827BC0160
:10022000CD01620F711D811D911D42E0660F771F88
:10023000881F991F4A95D1F708958F929F92AF9288
:10024000BF92CF92DF92EF92FF920E94F8004B0193
:100250005C0182E3C82ED12CE12CF12C0E94F80025
:10026000681979098A099B09683E734081059105DF
:10027000A8F321E0C21AD108E108F10888EE880E3F
:1002800083E0981EA11CB11CC114D104E104F10447
:1002900029F7FF90EF90DF90CF90BF90AF909F90A5
:1002A0008F9008951F920F920FB60F9211242F93E3
:1002B0003F938F939F93AF93BF9380910801909149
:1002C0000901A0910A01B0910B013091070123E0CF
:1002D000230F2D3758F50196A11DB11D209307015D
:1002E0008093080190930901A0930A01B0930B0138
:1002F00080910C0190910D01A0910E01B0910F0120
:100300000196A11DB11D80930C0190930D01A09346
:100310000E01B0930F01BF91AF919F918F913F91CB
:100320002F910F900FBE0F901F90189526E8230F66
:100330000296A11DB11DD2CF789484B5826084BD90
:1003400084B5816084BD85B5826085BD85B58160D9
:1003500085BD80916E00816080936E001092810057
:100360008091810082608093810080918100816012
:1003700080938100809180008160809380008091D3
:10038000B10084608093B1008091B000816080935F
:10039000B00080917A00846080937A0080917A0026
:1003A000826080937A0080917A00816080937A00E5
:1003B00080917A00806880937A001092C100ECE905
:1003C000F0E02491E8E8F0E08491882399F090E04F
:1003D000880F991FFC01E859FF4FA591B491FC01CA
:1003E000E458FF4F859194918FB7F894EC91E22BEC
:1003F000EC938FBFEDE9F0E02491E9E8F0E084911F
:100400008823C1F090E0880F991FFC01E859FF4F45
:10041000C591D491FC01E458FF4FA591B4919FB7C9
:10042000F8943881822F809583238883EC91E22B86
:10043000EC939FBFD1E000E010E00E94D400892B34
:1004400091F40E941D010E94D400892BD1F3809168
:1004500006018D2780930601882329F080910101F0
:100460008D27809301012FB7F89480910801909116
:100470000901A0910A01B0910B012FBF2091060143
:100480002223A1F120910101211104C081E00E94E9
:10049000A90025C04091020150910301609104011F
:1004A000709105016C017D01C41AD50AE60AF70AAC
:1004B000B701A601483C51056105710580F08093A4
:1004C000020190930301A0930401B0930501C09130
:1004D00000018C2F0E94A900CD27C09300010115B7
:1004E000110509F4AACF0E940000A7CF80E0CFCF6A
:0404F000F894FFCFAE
:0204F400010104
:00000001FF
