:100000000C9461000C947E000C947E000C947E0095
:100010000C947E000C947E000C947E000C947E0068
:100020000C947E000C947E000C947E000C947E0058
:100030000C947E000C947E000C947E000C947E0048
:100040000C9427010C947E000C947E000C947E008E
:100050000C947E000C947E000C947E000C947E0028
:100060000C947E000C947E00000000002400270009
:100070002A0000000000250028002B0000000000DE
:1000800023002600290004040404040404040202DA
:100090000202020203030303030301020408102007
:1000A0004080010204081020010204081020000012
:1000B0000008000201000003040700000000000027
:1000C000000011241FBECFEFD8E0DEBFCDBF11E08E
:1000D000A0E0B1E0EEE7F4E002C005900D92A2309E
:1000E000B107D9F721E0A2E0B1E001C01D92AB3029
:1000F000B207E1F70E9471010C943D020C940000DC
:10010000833081F028F4813099F08230A9F008958D
:100110008730A9F08830C9F08430B1F48091800034
:100120008F7D03C0809180008F7780938000089539
:1001300084B58F7784BD089584B58F7DFBCF809182
:10014000B0008F778093B00008958091B0008F7DCC
:10015000F9CFCF93DF93E1EBF0E08491EDE9F0E0AC
:10016000D491E9E8F0E0C491CC23A1F081110E9480
:100170008000EC2FF0E0EE0FFF1FE458FF4FA59139
:10018000B491EC91ED2381E090E009F480E0DF91FF
:10019000CF91089580E090E0FACF3FB7F894809136
:1001A000070190910801A0910901B0910A0126B5BB
:1001B000A89B05C02F3F19F00196A11DB11D3FBF9F
:1001C000BA2FA92F982F8827BC01CD01620F711D6E
:1001D000811D911D42E0660F771F881F991F4A9568
:1001E000D1F708958F929F92AF92BF92CF92DF92F4
:1001F000EF92FF920E94CD004B015C0182E3C82E7A
:10020000D12CE12CF12C0E94CD00681979098A09C2
:100210009B09683E734081059105A8F321E0C21A4D
:10022000D108E108F10888EE880E83E0981EA11C31
:10023000B11CC114D104E104F10429F7FF90EF903F
:10024000DF90CF90BF90AF909F908F9008951F92B6
:100250000F920FB60F9211242F933F938F939F937A
:10026000AF93BF938091030190910401A091050188
:10027000B09106013091020123E0230F2D3758F58C
:100280000196A11DB11D209302018093030190935B
:100290000401A0930501B09306018091070190919C
:1002A0000801A0910901B0910A010196A11DB11D9B
:1002B0008093070190930801A0930901B0930A016C
:1002C000BF91AF919F918F913F912F910F900FBE52
:1002D0000F901F90189526E8230F0296A11DB11DBF
:1002E000D2CF789484B5826084BD84B5816084BDAA
:1002F00085B5826085BD85B5816085BD80916E00C4
:10030000816080936E0010928100809181008260F4
:100310008093810080918100816080938100809131
:1003200080008160809380008091B1008460809320
:10033000B1008091B00081608093B00080917A001C
:10034000846080937A0080917A00826080937A0042
:1003500080917A00816080937A0080917A00806831
:1003600080937A001092C100CCE9D0E0FE01249184
:1003700008E810E0F8018491882399F090E0880F54
:10038000991FFC01E859FF4FA591B491FC01EE586B
:10039000FF4F859194918FB7F8949C91292B2C93C2
:1003A0008FBFEDE9F0E02491E9E8F0E08491882343
:1003B000C9F090E0880F991FFC01E859FF4FA59103
:1003C000B491FC01EE58FF4F459154919FB7F894BA
:1003D0003C91822F809583238C93DA01EC912E2B14
:1003E0002C939FBF90EBC92E90E0D92EAA24A39402
:1003F00020E0E22E20E0F22E0E94A900892B49F590
:100400000E94F2000E94A900892BD1F3F601849189
:10041000FE01B490F80184908820B1F09090000122
:1004200081110E948000E82DF0E0EE0FFF1FEE58D2
:10043000FF4FA591B4918FB7F8949C9191101BC078
:10044000B094B922BC928FBF809100018A2580931D
:1004500000018FB7F894409103015091040160911D
:100460000501709106018FBFE114F10409F4C4CFB6
:0E0470000E940000C1CFB92AE5CFF894FFCF5B
:02047E0001007B
:00000001FF
